:100000000C9499000C94C1000C94C1000C94C10094
:100010000C94C1000C94C1000C94C1000C94C1005C
:100020000C94C1000C94C1000C94C1000C94C1004C
:100030000C94C1000C94C1000C94C1000C94C1003C
:100040000C9481090C94C1000C944F090C9429095B
:100050000C94C1000C94C1000C94C1000C94C1001C
:100060000C94CB090C94C10007634236B79BD8A708
:100070001A39685618AEBAAB558C1D3CB7CC5763CD
:10008000BD6DEDFD753EF6177231BF000000803F7B
:1000900008000000BE922449123EABAAAA2ABECD97
:1000A000CCCC4C3E00000080BEABAAAAAA3E000009
:1000B0000000BF000000803F000000000008417801
:1000C000D3BB4387D1133D190E3CC3BD4282AD2B38
:1000D0003E68EC8276BED98FE1A93E4C80EFFFBE30
:1000E00001C4FF7F3F000000000000000000250069
:1000F00028002B0004040404040404040202020285
:1001000002020303030303030102040810204080DA
:100110000102040810200102040810200000000859
:1001200000020100000304070000000000000000BE
:10013000EA0A11241FBECFEFD8E0DEBFCDBF12E028
:10014000A0E0B1E0E8E9F1E202C005900D92A2342E
:10015000B107D9F723E0A2E4B2E001C01D92AF3F9E
:10016000B207E1F710E0C9E9D0E004C02197FE0131
:100170000E94C410C839D107C9F70E94260B0C94FD
:10018000CA100C9400002091540381E0213208F041
:1001900044C0809130038111FCCF8091530392E0E1
:1001A0009093300391E090932F039FEF90932E0351
:1001B00010922D0320932C03A3E3B3E0ECE0F3E0D3
:1001C00090E0291331C010920B0390910B03880F1C
:1001D000892B80930B0380910A03813049F510929B
:1001E0000A0380910B038093BB008091BC0083FDC8
:1001F000F8CF85EC8093BC00809130038230E1F32E
:1002000080912E038F3FB1F080912E038032A1F0B8
:1002100080912E03803391F084E01092320310928B
:1002200054031092310308953D9131939F5FC9CFDC
:1002300085EEE0CF80E0F1CF82E0EFCF83E0EDCF3D
:10024000909130039111FCCF91E090933003909303
:100250002F032FEF20932E0310922D03260F2093B0
:100260002C0390930B0390910B03880F892B8093A1
:100270000B0380910A038130F9F410920A038091F4
:100280000B038093BB008091BC0083FDF8CF85EC0D
:100290008093BC00809130038130E1F380912D0385
:1002A000861710F460912D03ACE0B3E0EAEEF2E0C3
:1002B00080E0861303C0089585EEEACF9D91919367
:1002C0008F5FF7CF8091BE029091BF02891B990B7F
:1002D000089590E0FC01E45EFE4F2491FC01E85F8C
:1002E000FE4F3491FC01EC50FF4FE491EE23B1F04E
:1002F000222339F02330E9F090F4213001F122304B
:1003000011F1F0E0EE0FFF1FE651FF4FA591B49100
:100310008FB7F894EC913E2B3C938FBF0895273014
:10032000A9F02830C9F0243061F7809180008F7DDA
:1003300003C0809180008F7780938000E2CF84B5E6
:100340008F7784BDDECF84B58F7DFBCF8091B000E9
:100350008F778093B000D5CF8091B0008F7DF9CF9B
:10036000089508951092BF021092BE0210923203B7
:10037000109254031092300381E080932F03109267
:100380000A0382E10E94690183E10E946901E9EBAD
:10039000F0E080818E7F808380818D7F808388E400
:1003A0008093B80085E48093BC0080EB91E090934B
:1003B000BD028093BC0281EB91E09093BB028093DD
:1003C000BA020895AF92BF92CF92DF92EF92FF925E
:1003D0000F931F93CF93DF936C017B018B01040F6D
:1003E000151FEB015E01AE18BF08C017D10759F009
:1003F0006991D601ED91FC910190F081E02DC6014B
:100400000995892B79F7C501DF91CF911F910F9144
:10041000FF90EF90DF90CF90BF90AF900895FC01D8
:10042000538D448D252F30E0842F90E0821B930B59
:10043000541710F0CF96089501970895FC01918DFF
:10044000828D981761F0A28DAE0FBF2FB11D5D9602
:100450008C91928D9F5F9F73928F90E008958FEFA4
:100460009FEF0895FC01918D828D981731F0828D58
:10047000E80FF11D858D90E008958FEF9FEF0895AF
:10048000FC01918D228D892F90E0805C9F4F821B13
:1004900091098F739927089585E593E00E944002A2
:1004A00021E0892B09F420E0822F089580E090E07C
:1004B000892B29F00E944C0281110C9400000895B0
:1004C000FC01A48DA80FB92FB11DA35ABF4F2C91C9
:1004D000848D90E001968F739927848FA689B789C0
:1004E0002C93A089B1898C91837080648C93938DB7
:1004F000848D981306C00288F389E02D80818F7D5A
:1005000080830895EF92FF920F931F93CF93DF9311
:10051000EC0181E0888F9B8D8C8D98131AC0E8893F
:10052000F989808185FF15C09FB7F894EE89FF890E
:100530006083E889F98980818370806480839FBFAC
:1005400081E090E0DF91CF911F910F91FF90EF90AC
:100550000895F62E0B8D10E00F5F1F4F0F731127BC
:10056000E02E8C8D8E110CC00FB607FCFACFE889F7
:10057000F989808185FFF5CFCE010E946002F1CF1D
:10058000EB8DEC0FFD2FF11DE35AFF4FF0829FB76B
:10059000F8940B8FEA89FB8980818062CFCFCF935B
:1005A000DF93EC01888D8823B9F0AA89BB89E8899B
:1005B000F9898C9185FD03C0808186FD0DC00FB641
:1005C00007FCF7CF8C9185FFF2CF808185FFEDCFBF
:1005D000CE010E946002E9CFDF91CF9108953FB72D
:1005E000F89480918A0290918B02A0918C02B09134
:1005F0008D0226B5A89B05C02F3F19F00196A11DBD
:10060000B11D3FBFBA2FA92F982F8827BC01CD015C
:10061000620F711D811D911D42E0660F771F881FBB
:10062000991F4A95D1F708958F929F92AF92BF92EA
:10063000CF92DF92EF92FF924B015C010E94EF029A
:100640006B017C010E94EF026C197D098E099F09E4
:10065000683E734081059105A8F321E0821A910854
:10066000A108B10888EEC80E83E0D81EE11CF11C79
:1006700081149104A104B10429F7FF90EF90DF9059
:10068000CF90BF90AF909F908F90089585ED80930D
:10069000BC008091BC0084FDFCCF10923003089513
:1006A00020916202260F3327331F21323105ECF4EB
:1006B00020913003FC0190E080E0243069F082E07A
:1006C0000895A09162022191AC014E5B5D4FA40F91
:1006D000B52FB11D2C930196861798F38091620275
:1006E000680F6093620280E0089581E008950895A4
:1006F000E091BF028091BE02E81730F4F0E0E651CD
:10070000FD4F808190E008958FEF9FEF08959091C5
:10071000BF028091BE022FEF3FEF981748F4E92FF8
:10072000F0E0E651FD4F208130E09F5F9093BF02E3
:10073000C9010895CF92DF92EF92FF920F931F931A
:10074000CF93DF937C01CB018A01209131032223D7
:1007500089F0EB016B01C40ED51ECC15DD0569F0E7
:100760006991D701ED91FC910190F081E02DC701D5
:100770000995F3CF642F0E945003C801DF91CF91F8
:100780001F910F91FF90EF90DF90CF900895CF933E
:10079000DF931F92CDB7DEB7698320913103222307
:1007A000F9F020915403203258F021E030E0FC01B0
:1007B0003383228390E080E00F90DF91CF91089502
:1007C00080913203E82FF0E0ED5CFC4F998190833B
:1007D0008F5F809332038093540381E090E0ECCFED
:1007E00061E0CE0101960E945003F7CFCF93DF93D3
:1007F000EB0191E090933103809353031092320305
:1008000010925403688182EF93E00E94C7036981CC
:1008100082EF93E00E94C703DF91CF910C94C30055
:100820009091DC0221E020933103909353031092C6
:10083000320310925403682F82EF93E00E94C703A3
:100840000C94C30090E080E00895FC01019000202A
:10085000E9F73197AF01481B590BBC0185E593E0DF
:100860000C94E2018F929F92AF92BF920F931F93CD
:10087000CF93DF93CDB7DEB7A1970FB6F894DEBF65
:100880000FBECDBF19A2423008F44AE08E010F5DC1
:100890001F4F842E912CB12CA12CA50194010E94F4
:1008A000A210E62FB901CA01EA30F4F4E05DD801E4
:1008B000EE938D01232B242B252B79F790E080E0FC
:1008C000109719F0CD010E942504A1960FB6F89457
:1008D000DEBF0FBECDBFDF91CF911F910F91BF90B3
:1008E000AF909F908F900895E95CE1CF0C94250420
:1008F000CF93DF930E942504EC0184E291E00E94F3
:1009000025048C0F9D1FDF91CF910895CF92DF9228
:10091000EF92FF92CF93DF9397FF1BC06B017C0197
:100920006DE285E593E00E948202EC01662777275D
:10093000CB016C197D098E099F094AE00E9432049F
:100940008C0F9D1FDF91CF91FF90EF90DF90CF90A4
:1009500008954AE0DF91CF91FF90EF90DF90CF9024
:100960000C943204BF92CF92DF92EF92FF920F93DA
:100970001F93CF93DF93CDB7DEB72A970FB6F894C6
:10098000DEBF0FBECDBF182FBB24B394CE0101969E
:100990006C018091DC02B09231038093530310927A
:1009A000320310925403612F82EF93E00E94C70339
:1009B0000E94C30062E08091DC020E942001082FA7
:1009C0001092BF028093BE0276018091BF02081789
:1009D00041F082EF93E00E948703F70181937F014A
:1009E000F4CFCE14DF04A9F28981282F30E0322F12
:1009F00022278A81820F932F911D1230E9F0133044
:100A000039F10097A1F09093D7028093D6022A96ED
:100A10000FB6F894DEBF0FBECDBFDF91CF911F910F
:100A20000F91FF90EF90DF90CF90BF90089580914D
:100A3000D6029091D702EBCF009729F09093D9027C
:100A40008093D802E4CF8091D8029091D902DFCF71
:100A5000009729F09093DB028093DA02D8CF80913F
:100A6000DA029091DB02D3CF9F92AF92BF92CF92E6
:100A7000DF92EF92FF920F931F93CF93DF93CDB747
:100A8000DEB72A970FB6F894DEBF0FBECDBF6C015C
:100A9000A62E99249394CE0101967C01F6018081C3
:100AA00090923103809353031092320310925403B7
:100AB00066E082EF93E00E94C7036A2D82EF93E025
:100AC0000E94C7030E94C30062E0F60180810E9479
:100AD0002001B82E1092BF028093BE028701809140
:100AE000BF02B81641F082EF93E00E948703F8013D
:100AF00081938F01F4CFE016F10681F2898190E0B5
:100B0000982F88272A81820F911D2A960FB6F89474
:100B1000DEBF0FBECDBFDF91CF911F910F91FF9030
:100B2000EF90DF90CF90BF90AF909F90089560E0DE
:100B30008CED92E00E9434058636944061F482E0A8
:100B400090E09093C1028093C00287E291E00E94FE
:100B5000780482E0089581E090E09093C102809350
:100B6000C00283E391E00E94780481E008951F931E
:100B7000CF93DF930E94100462E070E080E090E089
:100B80000E94140364E08091DC020E942001109214
:100B9000BF028093BE02C6E6D0E0811109C0219752
:100BA00041F162E070E080E090E00E941403F7CF32
:100BB000843011F582EF93E00E948703D82F82EFF3
:100BC00093E00E948703182F82EF93E00E9487032F
:100BD000C82F82EF93E00E948703D10FDC0FD81358
:100BE0000EC080E0912F8C0F911DDF91CF911F914E
:100BF00008958EEF9FEFF9CF8DEF9FEFF6CF8CEF3B
:100C00009FEFF3CF4F925F926F927F928F929F925E
:100C1000AF92BF92CF92DF92EF92FF926B017C0175
:100C2000AC019B010E94680F8823C1F08FE391E023
:100C30000E9425047C0184E291E00E9425048E0D2F
:100C40009F1DFF90EF90DF90CF90BF90AF909F904F
:100C50008F907F906F905F904F900895460157015D
:100C6000E894B7F82FEF3FEF4FE75FE7C501B40116
:100C70000E94680F81110DC02FEF3FEF4FE75FE734
:100C8000C501B4010E944E0D18161CF483E491E0D6
:100C9000CFCF2FEF3FEF4FE75FE4C701B6010E94D0
:100CA000A60E18161CF487E491E0C2CF2FEF3FEF99
:100CB0004FE75FECC701B6010E944E0D87FDF3CFF1
:100CC00020E030E0A901C701B6010E944E0DB12C11
:100CD000A12C87FF0AC06DE285E593E00E948202A5
:100CE0005C01F7FAF094F7F8F0942AE037ED43EA64
:100CF0005BE3C701B6010E94E20C2B013C010E949C
:100D0000C50D6B017C010E94F40D9B01AC01C30178
:100D1000B2010E94E10C2B013C014AE0C701B6017F
:100D20000E9432047C01EA0CFB1C6EE285E593E034
:100D30000E948202E80EF91E20E030E040E251E419
:100D4000C301B2010E94AB0E2B013C010E94C50DF4
:100D50004B01B12CA12C4AE0C501B4010E94320420
:100D6000E80EF91EC501B4010E94F40D9B01AC010F
:100D7000C301B2010E94E10C20E030E040E251E406
:100D80000E94AB0E0E94C50D90E080E04AE00E94F8
:100D90003204E80EF91E4FCF2F923F924F925F928E
:100DA0006F927F928F929F92AF92BF92CF92DF927B
:100DB000EF92FF920F931F93CF93DF93CDB7DEB7E0
:100DC00028970FB6F894DEBF0FBECDBF1C018091EF
:100DD000C0029091C1028130910509F0CAC0809192
:100DE000E902811122C081E10E94B7051816190697
:100DF0000CF040C09093DE028093DD0282E10E94FD
:100E0000B70518161906B4F59093E0028093DF0237
:100E100083E10E94B7051816190664F59093E20263
:100E20008093E10281E08093E90281E00E94B705AE
:100E300097FF29C0C12CD12CE12C20ECF22EC70148
:100E4000B60128960FB6F894DEBF0FBECDBFDF9176
:100E5000CF911F910F91FF90EF90DF90CF90BF90B7
:100E6000AF909F908F907F906F905F904F903F904A
:100E70002F900895892BB1F2C12CD12C90E8E92E46
:100E80009FEBF92EDCCF9093E4028093E30282E0A3
:100E90000E94B70597FDCECF9093E6028093E502BE
:100EA00083E00E94B7059A83898397FDC3CF90930F
:100EB000E8028093E7026091E3027091E40290E01F
:100EC00080E00E94F40D6B017C016091DD02709165
:100ED000DE0290E080E00E94F40D9B01AC01C701AE
:100EE000B6010E94530D6B017C016091E502709187
:100EF000E60290E080E00E94F40D4B015C016091FD
:100F0000DF027091E00290E080E00E94F40D9B010E
:100F1000AC01C501B4010E94530D4B015C01298154
:100F20003A81B90190E080E00E94F40D2B013C0170
:100F30006091E1027091E20290E080E00E94F40D85
:100F40009B01AC01C301B2010E94530D2B013C0176
:100F5000F1013197E730F10508F0EDC0EE54F84F9C
:100F60000C94C410AA08DB08E808F50802090F0968
:100F70001C09029769F78AE08093C20281E080939E
:100F8000C30262EC72E08091DC020E94F60368E02A
:100F90008CED92E00E9434053C016AE08CED92E019
:100FA0000E9434054C016CE08CED92E00E94340507
:100FB0008C0181E00E94B2047C0182E00E94B204B4
:100FC0005C0183E00E94B2049E838D83B701FF0C15
:100FD000880B990B0E94F60D6B017C01B301770C15
:100FE000880B990B0E94F60D2B013C01AC019B0173
:100FF000C701B6010E94530D69837A838B839C835A
:10100000A301920160E070EC8FE794E40E94E10C90
:101010009B01AC0169817A818B819C810E94AB0E1E
:101020002B013C01A701960160E070EC8FE794E48E
:101030000E94E10C9B01AC01C301B2010E94530D5F
:101040006B017C01B501BB0C880B990B0E94F60D5E
:101050002B013C01B401990C880B990B0E94F60DF1
:101060004B015C01AC019B01C301B2010E94530D15
:1010700069837A838B839C83A501940160E070EC83
:101080008FE794E40E94E10C9B01AC0169817A81B5
:101090008B819C810E94AB0E4B015C01A3019201EC
:1010A00060E070EC8FE794E40E94E10C9B01AC01DE
:1010B000C501B4010E94530D4B015C012D813E819D
:1010C000B901330F880B990B0E94F60D69837A835F
:1010D0008B839C83B801110F880B990B0E94F60D2E
:1010E0002B013C01AC019B0169817A818B819C8140
:1010F0000E94530D6D837E838F839887A301920195
:1011000060E070EC8FE794E40E94E10C9B01AC017D
:101110006D817E818F8198850E94AB0E2B013C01F1
:1011200029813A814B815C8160E070EC8FE794E427
:101130000E94E10C05CF29E739EE46E95FEBC501D6
:10114000B4010E94180F2CEE31E54CE850E40E94E7
:10115000AB0E0EC020E635EE40E85FE3C301B201FE
:101160000E94180F29E23CE54BED50E40E94530D1C
:101170006B017C018091C0029091C102029759F4E9
:101180008AE08093C2021092C30262EC72E0809106
:10119000DC020E94F603A7019601C701B6010E9476
:1011A000680F882309F44BCEC12CD12C80E4E82EA3
:1011B00080ECF82E44CE2FE832EC45ED5FEBC70112
:1011C000B6010E94180F26EF38E24CEB5FE3CECF5A
:1011D00029EE36E241E250ECC701B6010E94180F39
:1011E0002FE73AE84EE054E4B2CF2EEF34ED48E07A
:1011F00050ECC701B6010E94180F22EB3DE047EC0E
:1012000053E4A5CF22EB3DE94BE850ECC501B40116
:101210000E94180F2FE33DEB4DE154E498CF26E6F2
:1012200036E646EE5FEBC501B4010E94180F28E4D4
:1012300031EE4AE35FE38BCF20EF37EA46EC5FEB1A
:10124000C501B4010E94180F22EB3DE94FEC5FE3AA
:101250007ECF1F920F920FB60F9211242F933F93C0
:101260004F935F936F937F938F939F93AF93BF93AE
:10127000EF93FF9385E593E00E946002FF91EF9169
:10128000BF91AF919F918F917F916F915F914F919E
:101290003F912F910F900FBE0F901F9018951F92A6
:1012A0000F920FB60F9211242F938F939F93EF936A
:1012B000FF93E0916503F09166038081E0916B03F9
:1012C000F0916C0382FD1BC0908180916E038F5F53
:1012D0008F7320916F03821741F0E0916E03F0E06D
:1012E000EB5AFC4F958F80936E03FF91EF919F9186
:1012F0008F912F910F900FBE0F901F9018958081A6
:10130000F4CF1F920F920FB60F9211242F933F9399
:101310008F939F93AF93BF938091860290918702A2
:10132000A0918802B09189023091850223E0230FB9
:101330002D3758F50196A11DB11D2093850280938C
:10134000860290938702A0938802B09389028091CD
:101350008A0290918B02A0918C02B0918D0201962D
:10136000A11DB11D80938A0290938B02A0938C02E1
:10137000B0938D02BF91AF919F918F913F912F912B
:101380000F900FBE0F901F90189526E8230F02961E
:10139000A11DB11DD2CF1F920F920FB60F92112433
:1013A0002F933F934F935F936F937F938F939F936D
:1013B000AF93BF93EF93FF938091B900887F8036FE
:1013C00009F44AC0F0F5883209F4A7C018F5803155
:1013D00009F49BC0B8F4882309F4F9C0883009F4F3
:1013E00094C0FF91EF91BF91AF919F918F917F91A9
:1013F0006F915F914F913F912F910F900FBE0F9082
:101400001F901895883109F488C0803251F7809375
:101410002E0314C0803409F49DC040F48033B9F326
:101420008833F9F680932E0385ECB0C0803509F43B
:1014300085C0883509F496C0883499F60E94460321
:10144000D0CF883909F48CC038F5883729F050F4AA
:10145000883611F0803729F683E0809330031092AC
:10146000840257C0883809F47BC0803919F080386D
:1014700009F0B7CF80918402803208F071C0E0910A
:10148000840281E08E0F809384028091BB00F0E0A3
:10149000EC59FD4F80833DC0803B39F0E0F4803A49
:1014A00009F479C0883A09F09CCF84E08093300336
:1014B0001092630210926202E091BC02F091BD02B0
:1014C00009958091620281110FC081E080936202D0
:1014D0001092420209C0803C09F4A6CF883C09F46E
:1014E000A3CF883B09F07DCFE091630281E08E0FAE
:1014F00080936302F0E0EE5BFD4F80818093BB0040
:10150000909163028091620229C080910B038093C5
:10151000BB0085EC8093BC0064CF90912D0380913B
:101520002C03981758F5E0912D0381E08E0F8093DE
:101530002D03F0E0E45FFC4F8081E9CFE0912D03C3
:1015400081E08E0F80932D038091BB00F0E0E45F7B
:10155000FC4F808390912D0380912C039817C8F243
:1015600085E8D8CFE0912D0381E08E0F80932D0385
:101570008091BB00F0E0E45FFC4F808380912F03FB
:1015800081115CCF81E080930A0384EA8093BC00E0
:101590001092300326CF85EC8093BC00109230036C
:1015A00080918402803230F4E0918402F0E0EC59C2
:1015B000FD4F10826091840270E0E091BA02F091D8
:1015C000BB0284E692E00995109284020ACF109241
:1015D0002E0334CFE5E5F3E01382128288EE93E028
:1015E000A0E0B0E084839583A683B78324E031E054
:1015F0003183208325EC30E03587248724EC30E0EC
:101600003787268720EC30E0318B208B21EC30E0CF
:10161000338B228B22EC30E0358B248B26EC30E0B0
:10162000378B268B118E128E138E148EE2EFF3E021
:101630001382128284839583A683B78386E191E027
:101640009183808380E48093FE030895789484B529
:10165000826084BD84B5816084BD85B5826085BDAE
:1016600085B5816085BD80916E00816080936E003C
:10167000109281008091810082608093810080912E
:1016800081008160809381008091800081608093DF
:1016900080008091B10084608093B1008091B0009F
:1016A00081608093B00080917A00846080937A009A
:1016B00080917A00826080937A0080917A008160C4
:1016C00080937A0080917A00806880937A001092EB
:1016D000C100E0916503F091660382E08083E091B0
:1016E0006103F09162031082E0916303F09164035F
:1016F0008FEC808310926D03E0916903F0916A038F
:1017000086E08083E0916703F091680380818061C7
:101710008083E0916703F091680380818860808313
:10172000E0916703F0916803808180688083E09195
:101730006703F091680380818F7D808364E670E0A9
:1017400080E090E00E9414038BE491E00E94780412
:101750000E94B2018091FE03C1E0C09331038093E7
:101760005303109232031092540368E882EF93E01F
:101770000E94C7030E94C3008823B9F188E591E065
:101780000E94760462E370E080E090E00E948604AC
:1017900088EB91E00E9476046EEF7FEF8FEF9FEF72
:1017A0000E94860484E291E00E94250486EC91E088
:1017B0000E947804FFCF029791F58BE08093C202DC
:1017C000C093C30262EC72E08091DC020E94F603D7
:1017D00026C02196CB30D10509F49EC061E070E0AF
:1017E00080E090E00E94140388C081E090E0909334
:1017F000C1028093C0021092E9020E94B20184E00B
:101800008093DC020E94970590E09093C102809340
:10181000C0028130910579F681E20E9410048CEDBE
:1018200091E00E9476040E949705682F70E090E096
:1018300080E04AE00E94320484E291E00E942504A4
:1018400000E010E080EF91E00E94760482E090E0FA
:101850000E94CC060E94020686EF91E00E94760468
:1018600090E080E00E94CC060E9402068BEF91E09F
:101870000E94760481E090E00E94CC060E9402065D
:1018800081E092E00E94760483E090E00E94CC0622
:101890000E94020688E092E00E94760484E090E0D4
:1018A0000E94CC060E94020680E192E00E9476042B
:1018B00085E090E00E94CC060E94020686E192E05C
:1018C0000E94760486E090E00E94CC060E94020608
:1018D0008BE192E00E94760487E090E00E94CC06C3
:1018E0000E9402066DE180E40E942001F82E109211
:1018F000BF028093BE02D0E0C0E08DE1F81269CF54
:10190000CCE9D2E082E0C93BD80751F082EF93E006
:101910000E9487038993F6CF84E292E00E947804C4
:10192000ECE9F2E0CEE8D2E0DE0182819381892702
:10193000982789278D939D93329682E0EA3AF8079B
:10194000A1F7C12CD12C7601C701B6010E948604F3
:101950008DE092E00E94760469917991072E000C47
:10196000880B990B0E94860484E291E00E94250472
:101970008FEFC81AD80AE80AF80A87E0C816D10417
:10198000E104F10409F78EE092E00E9478048EE011
:1019900092E00E9478048EE092E00E94780468E869
:1019A00073E180E090E00E9414030115110509F431
:1019B00049CF0E944C02882309F444CF0E940000C2
:1019C00041CF5058BB27AA270E94F90C0C946C0EEB
:1019D0000E945E0E38F00E94650E20F039F49F3FA1
:1019E00019F426F40C945B0E0EF4E095E7FB0C94CE
:1019F000550EE92F0E947D0E58F3BA176207730740
:101A00008407950720F079F4A6F50C949F0E0EF448
:101A1000E0950B2EBA2FA02D0B01B90190010C01FE
:101A2000CA01A0011124FF27591B99F0593F50F416
:101A3000503E68F11A16F040A22F232F342F44276E
:101A4000585FF3CF469537952795A795F040539566
:101A5000C9F77EF41F16BA0B620B730B840BBAF036
:101A60009150A1F0FF0FBB1F661F771F881FC2F7A1
:101A70000EC0BA0F621F731F841F48F487957795B5
:101A80006795B795F7959E3F08F0B0CF9395880F6F
:101A900008F09927EE0F9795879508950E94310ECB
:101AA00008F481E008950E94670D0C946C0E0E946A
:101AB000650E58F00E945E0E40F029F45F3F29F059
:101AC0000C94550E51110C94A00E0C945B0E0E94B8
:101AD0007D0E68F39923B1F3552391F3951B550BB4
:101AE000BB27AA2762177307840738F09F5F5F4FF1
:101AF000220F331F441FAA1FA9F335D00E2E3AF030
:101B0000E0E832D091505040E695001CCAF72BD047
:101B1000FE2F29D0660F771F881FBB1F2617370798
:101B20004807AB07B0E809F0BB0B802DBF01FF27CA
:101B300093585F4F3AF09E3F510578F00C94550E44
:101B40000C94A00E5F3FE4F3983ED4F3869577950E
:101B50006795B795F7959F5FC9F7880F911D969583
:101B6000879597F90895E1E0660F771F881FBB1FDF
:101B7000621773078407BA0720F0621B730B840B8C
:101B8000BA0BEE1F88F7E09508950E94850E88F045
:101B90009F5798F0B92F9927B751B0F0E1F0660F31
:101BA000771F881F991F1AF0BA95C9F714C0B13072
:101BB00091F00E949F0EB1E008950C949F0E672F44
:101BC000782F8827B85F39F0B93FCCF386957795A1
:101BD0006795B395D9F73EF490958095709561958A
:101BE0007F4F8F4F9F4F0895E89409C097FB3EF4B5
:101BF00090958095709561957F4F8F4F9F4F99235A
:101C0000A9F0F92F96E9BB279395F69587957795D7
:101C10006795B795F111F8CFFAF4BB0F11F460FF97
:101C20001BC06F5F7F4F8F4F9F4F16C0882311F0EF
:101C300096E911C0772321F09EE8872F762F05C003
:101C4000662371F096E8862F70E060E02AF09A959E
:101C5000660F771F881FDAF7880F9695879597F993
:101C60000895990F0008550FAA0BE0E8FEEF16162D
:101C70001706E807F907C0F012161306E407F50780
:101C800098F0621B730B840B950B39F40A2661F0F4
:101C9000232B242B252B21F408950A2609F4A14097
:101CA000A6958FEF811D811D089597F99F6780E8A4
:101CB00070E060E008959FEF80EC089500240A949E
:101CC0001616170618060906089500240A94121617
:101CD0001306140605060895092E0394000C11F44A
:101CE000882352F0BB0F40F4BF2B11F460FF04C0F7
:101CF0006F5F7F4F8F4F9F4F089557FD9058440F50
:101D0000551F59F05F3F71F04795880F97FB991F5A
:101D100061F09F3F79F08795089512161306140617
:101D2000551FF2CF4695F1DF08C0161617061806A4
:101D3000991FF1CF86957105610508940895E8947F
:101D4000BB2766277727CB0197F908950E94310EAC
:101D500008F48FEF08950E94BE0E0C946C0E0E9442
:101D60005E0E38F00E94650E20F0952311F00C9461
:101D7000550E0C945B0E11240C94A00E0E947D0E47
:101D800070F3959FC1F3950F50E0551F629FF001CE
:101D9000729FBB27F00DB11D639FAA27F00DB11DE7
:101DA000AA1F649F6627B00DA11D661F829F222770
:101DB000B00DA11D621F739FB00DA11D621F839FF7
:101DC000A00D611D221F749F3327A00D611D231FCD
:101DD000849F600D211D822F762F6A2F11249F571B
:101DE00050409AF0F1F088234AF0EE0FFF1FBB1F1E
:101DF000661F771F881F91505040A9F79E3F5105DD
:101E000080F00C94550E0C94A00E5F3FE4F3983EC6
:101E1000D4F3869577956795B795F795E7959F5F86
:101E2000C1F7FE2B880F911D9695879597F9089518
:101E3000FA01EE0FFF1F309621053105A1F1611562
:101E4000710561F48038BFE39B0749F168949038CD
:101E5000810561F08038BFEF9B0741F099234AF577
:101E6000FF3FE1053105210519F1E8940894E79554
:101E7000D901AA2329F4AB2FBE2FF85FD0F310C0ED
:101E8000FF5F70F4A695E0F7F73950F019F0FF3ACC
:101E900038F49F779F930DD00F9007FC90580895CA
:101EA00046F00C945B0E60E070E080E89FE30895DC
:101EB0004FE79F775F934F933F932F930E941810A4
:101EC0002F913F914F915F910E94AB0E0C94750F33
:101ED0000E94310E880B990B089529F416F00C948A
:101EE000550E0C949F0E0C945B0E0E94850EA8F369
:101EF0009638A0F707F80F92E8942BE33AEA48EBFC
:101F00005FE70E94C10E0F920F920F924DB75EB71E
:101F10000F920E946010E8E6F0E00E94A70F4F9138
:101F20005F91EF91FF91E595EE1FFF1F49F0FE577E
:101F3000E0684427EE0F441FFA95E1F74195550BF1
:101F40000E94DA0F0F9007FE0C94CE0F0895DF93D6
:101F5000CF931F930F93FF92EF92DF927B018C013F
:101F6000689406C0DA2EEF010E94BE0EFE01E894CE
:101F7000A5912591359145915591A6F3EF010E94C8
:101F8000F90CFE019701A801DA9469F7DF90EF9050
:101F9000FF900F911F91CF91DF9108959B01AC01AC
:101FA00060E070E080E89FE30C94530D0C94550EB4
:101FB0000C9494100E94850ED8F39923C9F3940FC2
:101FC000511DA3F39150504094F059F0882332F002
:101FD000660F771F881F91505040C1F79E3F5105F3
:101FE0002CF7880F911D9695879597F908955F3F77
:101FF000ACF0983E9CF0BB27869577956795B79592
:1020000008F4B1609395C1F7BB0F58F711F460FF66
:10201000E8CF6F5F7F4F8F4F9F4FE3CF0C94A00EA1
:1020200016F00C9494100C945B0E68940C94550E5E
:102030000E94850EA8F39923C1F3AEF3DF93CF93EB
:102040001F930F93FF92C92FDD2788232AF0219732
:10205000660F771F881FDAF720E030E040E85FEB7B
:102060009FE3883920F0803E38F021968F770E94D8
:10207000E20CE0E9F0E004C00E94E20CEDEBF0E0DD
:102080000E94A70F8B01BE01EC01FB2E6F57710957
:102090007595771F880B990B0E94F60D28E132E7A2
:1020A00041E35FE30E94BE0EAF2D9801AE01FF90A9
:1020B0000F911F91CF91DF910E94F90C0C946C0E3F
:1020C000FA01DC01AA0FBB1F9B01AC01BF5728F42A
:1020D000222733274427507820C0B75190F4AB2FE4
:1020E0000024469537952795011CA395D2F300202F
:1020F00071F0220F331F441FB395DAF30ED00C9406
:10210000E10C61307105A0E88A07B94630F49B0103
:10211000AC016627772788279078309621F02083B6
:1021200031834283538308959F3F31F0915020F4CF
:10213000879577956795B795880F911D96958795A3
:1021400097F90895A1E21A2EAA1BBB1BFD010DC031
:10215000AA1FBB1FEE1FFF1FA217B307E407F50757
:1021600020F0A21BB30BE40BF50B661F771F881F33
:10217000991F1A9469F760957095809590959B01C9
:10218000AC01BD01CF010895EE0FFF1F0590F49142
:08219000E02D0994F894FFCF43
:10219800000000008202E2010F02CF0240021E028C
:1021A800320200000000C7039A0322047703620189
:1021B800870378030D0A0076657273696F6E203D98
:1021C80020320076657273696F6E203D2031006E93
:1021D800616E00696E66006F7666005365726961AC
:1021E8006C207374617274002F55736572732F6D50
:1021F8006F65657A6D616C696B2F446F63756D658A
:102208006E74732F41726475696E6F2F6C69627298
:1022180061726965732F53656565645F504D325F00
:10222800355F73656E736F725F484D333330312D90
:102238006D61737465722F53656565645F484D33CE
:102248003330582E63707000206572726F7220638D
:102258006F6465203D00484D3333305820696E69FE
:1022680074206661696C6564212121004669726D7C
:10227800776172652056657273696F6E203D200024
:102288004E48333A2000434F3A20004E4F323A200E
:1022980000433348383A200043344831303A20006C
:1022A8004348343A200048323A2000433248354FF8
:1022B800483A2000484D3333305820726561642015
:1022C800726573756C74206661696C65642121217F
:0222D800000004
:00000001FF
