:100000000C9458000C9480000C9480000C94800098
:100010000C9480000C9480000C9480000C94800060
:100020000C9480000C9480000C9480000C94800050
:100030000C9480000C9480000C9480000C94800040
:100040000C94D7030C9480000C94A5030C947F03AC
:100050000C9480000C9480000C9480000C94800020
:100060000C9421040C94800000000000250028005E
:100070002B00040404040404040402020202020229
:10008000030303030303010204081020408001025C
:1000900004081020010204081020000000080002DB
:1000A00001000003040700000000000000004005FC
:1000B00011241FBECFEFD8E0DEBFCDBF11E0A0E01E
:1000C000B1E0E2E6FFE002C005900D92A83DB10765
:1000D000D9F723E0A8EDB1E001C01D92AB36B2071D
:1000E000E1F710E0C8E5D0E004C02197FE010E94CE
:1000F000A907C735D107C9F70E947C050C94AF0743
:100100000C94000090E0FC01E656FF4F2491FC01A6
:10011000EA57FF4F3491FC01EE58FF4FE491EE2374
:10012000B1F0222339F02330E9F090F4213001F1CD
:10013000223011F1F0E0EE0FFF1FE859FF4FA591BB
:10014000B4918FB7F894EC913E2B3C938FBF0895F8
:100150002730A9F02830C9F0243061F78091800061
:100160008F7D03C0809180008F7780938000E2CFE5
:1001700084B58F7784BDDECF84B58F7DFBCF809132
:10018000B0008F778093B000D5CF8091B0008F7D85
:10019000F9CF8091730290917402891B990B089595
:1001A00008950895AF92BF92CF92DF92EF92FF929F
:1001B0000F931F93CF93DF936C017B018B01040F8F
:1001C000151FEB015E01AE18BF08C017D10759F02B
:1001D0006991D601ED91FC910190F081E02DC6016D
:1001E0000995892B79F7C501DF91CF911F910F9167
:1001F000FF90EF90DF90CF90BF90AF900895FC01FB
:10020000538D448D252F30E0842F90E0821B930B7B
:10021000541710F0CF96089501970895FC01918D21
:10022000828D981761F0A28DAE0FBF2FB11D5D9624
:100230008C91928D9F5F9F73928F90E008958FEFC6
:100240009FEF0895FC01918D828D981731F0828D7A
:10025000E80FF11D858D90E008958FEF9FEF0895D1
:10026000FC01918D228D892F90E0805C9F4F821B35
:1002700091098F739927089581EC92E00E943001D3
:1002800021E0892B09F420E0822F089580E090E09E
:10029000892B29F00E943C0181110C9400000895E3
:1002A000FC01A48DA80FB92FB11DA35ABF4F2C91EB
:1002B000848D90E001968F739927848FA689B789E2
:1002C0002C93A089B1898C91837080648C93938DD9
:1002D000848D981306C00288F389E02D80818F7D7C
:1002E00080830895EF92FF920F931F93CF93DF9334
:1002F000EC0181E0888F9B8D8C8D98131AC0E88962
:10030000F989808185FF15C09FB7F894EE89FF8930
:100310006083E889F98980818370806480839FBFCE
:1003200081E090E0DF91CF911F910F91FF90EF90CE
:100330000895F62E0B8D10E00F5F1F4F0F731127DE
:10034000E02E8C8D8E110CC00FB607FCFACFE88919
:10035000F989808185FFF5CFCE010E945001F1CF50
:10036000EB8DEC0FFD2FF11DE35AFF4FF0829FB78D
:10037000F8940B8FEA89FB8980818062CFCFCF937D
:10038000DF93EC01888D8823B9F0AA89BB89E889BD
:10039000F9898C9185FD03C0808186FD0DC00FB663
:1003A00007FCF7CF8C9185FFF2CF808185FFEDCFE1
:1003B000CE010E945001E9CFDF91CF9108953FB760
:1003C000F8948091200290912102A0912202B09194
:1003D000230226B5A89B05C02F3F19F00196A11D49
:1003E000B11D3FBFBA2FA92F982F8827BC01CD017F
:1003F000620F711D811D911D42E0660F771F881FDE
:10040000991F4A95D1F708958F929F92AF92BF920C
:10041000CF92DF92EF92FF924B015C010E94DF01CD
:100420006B017C010E94DF016C197D098E099F0917
:10043000683E734081059105A8F321E0821A910876
:10044000A108B10888EEC80E83E0D81EE11CF11C9B
:1004500081149104A104B10429F7FF90EF90DF907B
:10046000CF90BF90AF909F908F90089585ED80932F
:10047000BC008091BC0084FDFCCF109272020895F4
:100480002091F801260F3327331F21323105ECF478
:1004900020917202FC0190E080E0243069F082E05B
:1004A0000895A091F8012191AC0148525E4FA40F2C
:1004B000B52FB11D2C930196861798F38091F80102
:1004C000680F6093F80180E0089581E00895089531
:1004D000E091740280917302E81730F4F0E0EB5879
:1004E000FD4F808190E008958FEF9FEF08959091E8
:1004F0007402809173022FEF3FEF981748F4E92FB1
:10050000F0E0EB58FD4F208130E09F5F9093740244
:10051000C9010895CF92DF92EF92FF920F931F933C
:10052000CF93DF937C01CB018A01209145022223E6
:1005300089F0EB016B01C40ED51ECC15DD0569F009
:100540006991D701ED91FC910190F081E02DC701F7
:100550000995F3CF642F0E944002C801DF91CF912B
:100560001F910F91FF90EF90DF90CF900895CF9360
:10057000DF931F92CDB7DEB7698320914502222316
:10058000F9F020914A02203258F021E030E0FC01DD
:100590003383228390E080E00F90DF91CF91089524
:1005A00080914B02E82FF0E0EC5DFD4F9981908344
:1005B0008F5F80934B0280934A0281E090E0ECCF02
:1005C00061E0CE0101960E944002F7CF90E080E00A
:1005D0000895FC0101900020E9F73197AF01481B15
:1005E000590BBC0181EC92E00C94D200CF93DF93C5
:1005F0000E94E902EC0184E291E00E94E9028C0F82
:100600009D1FDF91CF9108958F929F92AF92BF92DD
:10061000CF92DF92EF92FF920F931F93CF93DF93CE
:10062000CDB7DEB7A1970FB6F894DEBF0FBECDBF32
:100630006B017C01F7FE41C06DE281EC92E00E940B
:1006400072018C0122273327A9012C193D094E097B
:100650005F0919A2CE0181967C019AE0892E912C26
:10066000A12CB12CCA01B901A50194010E948707F0
:10067000605DF70162937F01211531054105510548
:1006800089F790E080E0309719F0CF010E94E902ED
:10069000800F911FA1960FB6F894DEBF0FBECDBF9D
:1006A000DF91CF911F910F91FF90EF90DF90CF904E
:1006B000BF90AF909F908F900895AC019B0119A2BD
:1006C0008E010F5D1F4F8AE0C82ED12CE12CF12C3A
:1006D000CA01B901A70196010E948707605DF80170
:1006E00062938F01211531054105510589F790E08D
:1006F00080E0309779F2CF010E94E902CBCF1F92C0
:100700000F920FB60F9211242F933F934F935F9345
:100710006F937F938F939F93AF93BF93EF93FF93C9
:1007200081EC92E00E945001FF91EF91BF91AF9157
:100730009F918F917F916F915F914F913F912F91F9
:100740000F900FBE0F901F9018951F920F920FB62B
:100750000F9211242F938F939F93EF93FF93E09128
:10076000D102F091D2028081E091D702F091D802BB
:1007700082FD1BC090818091DA028F5F8F73209180
:10078000DB02821741F0E091DA02F0E0EF53FD4F17
:10079000958F8093DA02FF91EF919F918F912F9126
:1007A0000F900FBE0F901F9018958081F4CF1F926D
:1007B0000F920FB60F9211242F933F938F939F9315
:1007C000AF93BF9380911C0290911D02A0911E02D5
:1007D000B0911F0230911B0223E0230F2D3758F5F3
:1007E0000196A11DB11D20931B0280931C029093C2
:1007F0001D02A0931E02B0931F02809120029091CF
:100800002102A0912202B09123020196A11DB11DE7
:100810008093200290932102A0932202B09323029E
:10082000BF91AF919F918F913F912F910F900FBEEC
:100830000F901F90189526E8230F0296A11DB11D59
:10084000D2CF1F920F920FB60F9211242F933F9386
:100850004F935F936F937F938F939F93AF93BF93C8
:10086000EF93FF938091B900887F803609F44AC0E6
:10087000F0F5883209F4A7C018F5803109F49BC05F
:10088000B8F4882309F4F9C0883009F494C0FF91C2
:10089000EF91BF91AF919F918F917F916F915F91F8
:1008A0004F913F912F910F900FBE0F901F90189571
:1008B000883109F488C0803251F78093700214C0E7
:1008C000803409F49DC040F48033B9F38833F9F6DD
:1008D0008093700285ECB0C0803509F485C08835FE
:1008E00009F496C0883499F60E943602D0CF883930
:1008F00009F48CC038F5883729F050F4883611F0A7
:10090000803729F683E08093720210921A0257C052
:10091000883809F47BC0803919F0803809F0B7CFE6
:1009200080911A02803208F071C0E0911A0281E0D1
:100930008E0F80931A028091BB00F0E0E650FE4FCC
:1009400080833DC0803B39F0E0F4803A09F479C0FF
:10095000883A09F09CCF84E0809372021092F901EA
:100960001092F801E0914802F091490209958091B6
:10097000F80181110FC081E08093F8011092D80135
:1009800009C0803C09F4A6CF883C09F4A3CF883B7A
:1009900009F07DCFE091F90181E08E0F8093F9019C
:1009A000F0E0E852FE4F80818093BB009091F90106
:1009B0008091F80129C080916D028093BB0085EC85
:1009C0008093BC0064CF90916F0280916E02981763
:1009D00058F5E0916F0281E08E0F80936F02F0E096
:1009E000E45BFD4F8081E9CFE0916F0281E08E0FE3
:1009F00080936F028091BB00F0E0E45BFD4F808349
:100A000090916F0280916E029817C8F285E8D8CF56
:100A1000E0916F0281E08E0F80936F028091BB00A6
:100A2000F0E0E45BFD4F80838091710281115CCF27
:100A300081E080936C0284EA8093BC001092720281
:100A400026CF85EC8093BC001092720280911A022E
:100A5000803230F4E0911A02F0E0E650FE4F10824E
:100A600060911A0270E0E0914602F09147028AEF2D
:100A700091E0099510921A020ACF1092700234CFB9
:100A8000E1ECF2E01382128288EE93E0A0E0B0E0A5
:100A900084839583A683B78324E031E03183208368
:100AA00025EC30E03587248724EC30E03787268733
:100AB00020EC30E0318B208B21EC30E0338B228B2B
:100AC00022EC30E0358B248B26EC30E0378B268B04
:100AD000118E128E138E148EEEE5F3E013821282C5
:100AE00084839583A683B78386E191E09183808395
:100AF00080E480936A030895789484B5826084BD0D
:100B000084B5816084BD85B5826085BD85B5816011
:100B100085BD80916E00816080936E00109281008F
:100B2000809181008260809381008091810081604A
:100B3000809381008091800081608093800080910B
:100B4000B10084608093B1008091B0008160809397
:100B5000B00080917A00846080937A0080917A005E
:100B6000826080937A0080917A00816080937A001D
:100B700080917A00806880937A001092C100E091A1
:100B8000D102F091D20282E08083E091CD02F09117
:100B9000CE021082E091CF02F091D0028FEC8083E0
:100BA0001092D902E091D502F091D60286E08083BE
:100BB000E091D302F091D402808180618083E09142
:100BC000D302F091D402808188608083E091D302C7
:100BD000F091D402808180688083E091D302F0910B
:100BE000D40280818F7D808364E670E080E090E0B5
:100BF0000E94040287E291E00E94F60210927402C1
:100C00001092730210924B0210924A0210927202DA
:100C1000D1E0D093710210926C0282E10E948200B6
:100C200083E10E9482008091B9008E7F8093B90099
:100C30008091B9008D7F8093B90088E48093B800DB
:100C400085E48093BC0080ED90E09093490280930E
:100C5000480281ED90E09093470280934602C09154
:100C60006A03D0934502C093440210924B02109243
:100C70004A0268E88EE593E00E94B70290914A022A
:100C800081E0913208F046C0809172028111FCCF60
:100C900082E08093720281E0809371028FEF8093F3
:100CA000700210926F0290936E02E4E2F2E0ACE404
:100CB000B2E080E0981397C010926D0280916D02AF
:100CC000CC0FC82BC0936D0280916C02813009F06B
:100CD0008EC010926C0280916D028093BB00809157
:100CE000BC0083FDF8CF85EC8093BC00809172023C
:100CF0008230E1F3809170028F3F09F47AC08091D5
:100D00007002803209F477C080917002803309F458
:100D100074C084E010924B0210924A021092450275
:100D200081116DC0D1E0BB24BA948CE1A82E95EE60
:100D3000992E25EC822E31EBE32E32E0F32E40E0AB
:100D4000C42E40E0D42E809172028111FCCFD0934A
:100D50007202D0937102B092700210926F02A09250
:100D60006E02D0936D0280916D02806880936D0257
:100D700080916C02813009F05FC010926C0280910A
:100D80006D028093BB008091BC0083FDF8CF809200
:100D9000BC00809172028130E1F380916F028D314D
:100DA00008F04DC080916F02ACE4B2E0E5E7F2E0FC
:100DB000C0E0C81346C010927402C093730210E0E2
:100DC00000E0CD3109F041C003EA12E082E0003CCE
:100DD000180709F44AC08EE593E00E947702F801F3
:100DE00081938F01F3CF21912D938F5F63CF85EE98
:100DF0007BCF80E08FCF82E08DCF83E08BCF84E309
:100E000091E00E94E90262E370E080E090E00E94DD
:100E1000040384E991E00E94E9026EEF7FEF8FEF17
:100E20009FEF0E94040384E291E00E94E90282EABB
:100E300091E00E94F602FFCF9092BC00AACF8DE114
:100E4000B3CF9D919193CF5FB4CF0F5F1F4F0B3006
:100E5000110539F061E070E080E090E00E9404024A
:100E6000B0CF8BEB91E00E94F602E3EAF2E005E9F5
:100E700012E0D801828193818927982789278D9351
:100E80009D933296EE16FF06A9F7412C512C3201A4
:100E9000C301B2010E94040388EB91E00E94E902C1
:100EA000F801619171918F01072E000C880B990B4D
:100EB0000E94040384E291E00E94E902FFEF4F1ACE
:100EC0005F0A6F0A7F0A87E04816510461047104C3
:100ED000F9F689EB91E00E94F60289EB91E00E941D
:100EE000F60289EB91E00E94F60268E873E180E087
:100EF00090E00E940402C114D10409F424CF0E949E
:100F00003C01882309F41FCF0E9400001CCFA1E2FE
:100F10001A2EAA1BBB1BFD010DC0AA1FBB1FEE1F73
:100F2000FF1FA217B307E407F50720F0A21BB30BBE
:100F3000E40BF50B661F771F881F991F1A9469F73A
:100F400060957095809590959B01AC01BD01CF0196
:100F50000895EE0FFF1F0590F491E02D0994F89489
:020F6000FFCFC1
:100F6200000000007201D200FF00BF0130010E013B
:100F7200220100000000B7028A02E6026702C900ED
:100F8200770268020D0A0053657269616C207374FE
:100F9200617274002F55736572732F6D6F65657A78
:100FA2006D616C696B2F446F63756D656E74732F21
:100FB20041726475696E6F2F6C69627261726965E4
:100FC200732F53656565645F504D325F355F73659E
:100FD2006E736F725F484D333330312D6D617374B0
:100FE20065722F53656565645F484D333330582E03
:100FF20063707000206572726F7220636F64652087
:101002003D00484D3333305820696E697420666163
:10101200696C6564212121003A2000484D33333048
:1010220058207265616420726573756C7420666104
:08103200696C656421212100B5
:00000001FF
